:020000040000FA
:100000000A128A11FB2F00308A000408840A820732
:0E00100000348834133405340034D4343034D2
:100EEC0083160313891083120313891083160313BB
:100EFC000614080083120313061C852F862F892FD6
:100F0C00FB01FB0A8A2FFB0108000A128A117627C3
:100F1C000A128A110A128A1180270A128A117B0876
:100F2C000319992F9A2F902F0A128A11A3270A12AC
:100F3C008A11902F0A128A110028F901FA01D43073
:100F4C00F0003030F1008830F2001330F3000A1258
:100F5C008A11C6270A128A110130F9070318FA0AF6
:100F6C000030FA077A08803AFF0080307F02031DB8
:100F7C00C12F05307902031CC42FC52FA52F0800E3
:100F8C00831203138914F501F601D22F0130F507F2
:100F9C000318F60A0030F6077608803AF400710858
:100FAC00803A7402031DDC2F70087502031CDF2FBE
:100FBC00E02FCC2F831203138910F701F801EC2FCB
:100FCC000130F7070318F80A0030F8077808803A60
:100FDC00F4007308803A7402031DF62F720877022E
:100FEC00031CF92FFA2FE62F0800FB0183010A12CC
:040FFC008A118B2F9C
:02400E00323F3F
:00000001FF
