:020000040000FA
:100000000A128A11FC2F00308A000408840A820731
:100010000034C0340034F9340034A4340034B03433
:100020000034993400349234003483340034F8348A
:1000300000348034003498340034FE340034FD340D
:100040000034FB340034F7340034EF340034DF3450
:0200500000347A
:100EE200F201F30171087302031D792F7008720277
:100EF200031808000130F2070318F30A0030F30761
:100F0200732F8316031388018501FF3083120313A5
:100F1200850088017008F4007407013E84000A12FB
:100F22008A1103200A128A1188007208F4007407D9
:100F3200153E84000A128A110320850008000A1255
:100F42008A11CB270A128A117108F7007008F6007D
:100F5200C830F0000030F1000A128A1171270A121B
:100F62008A117708803AFF0080307F02031DBB2F71
:100F720001307602031CA02F7708F1007608F000FA
:100F82000130F2000030F3000A128A1182270A129D
:100F92008A11A02FFF3083160313860007309F00AB
:100FA200F401F501DF2F0130DB2F0230DB2F03309C
:100FB200DB2F0430F4000030F500F72F8312031307
:100FC2000608F200F3017308003A0319E92FF72F1C
:100FD2007208013A0319D42F033A0319D62F063A9D
:100FE2000319D82F0C3A0319DA2FF72F7508F100DD
:0E0FF2007408F000080083010A128A11A02F73
:02400E00323F3F
:00000001FF
