:020000040000FA
:100000000A128A11FC2F00308A000408840A820731
:100010000034D8340034C8340034D0340034C03410
:10002000003457346F3472346C34643479340034AF
:1000300057346F3472346C3464340034483465346B
:100040006C346C346F340034783458347834003481
:100D74000730831603139F00850188018312031330
:100D8400051508000F300A128A11D5260A128A1195
:100D940001300A128A11D5260A128A1138300A1231
:100DA4008A11D5260800F500831203138512051253
:100DB4007508880085117030F0001730F1000A12B0
:100DC4008A11FB268312031385150800F50083128C
:100DD4000313851605127508880085117030F0001C
:100DE4001730F1000A128A11FB26831203138515AA
:100DF4000800F301F4017408803AF2007108803AA3
:100E04007202031D072F70087302031808000130D3
:100E1400F3070318F40A0030F407FD2EF300F4017D
:100E2400F5017408730784000A128A1103200A1258
:100E34008A11003A0319252F0130F4070318F50A23
:100E44000030F507132F7508F1007408F00008004E
:100E540076037704031D312F7808C03E482F0230F3
:100E640076067704031D392F7808D03E482F0330C7
:100E740076067704031D412F7808C83E482F0430B6
:100E840076067704031D4E2F7808D83EFA007908B9
:100E94000318013E003EFB007A080A128A11D52687
:100EA4000800F900F701F80179080A128A111027DD
:100EB4000A128A117808803AF6007108803A76029C
:100EC400031D662F70087702031808007708790756
:100ED40084000A128A1103200A128A110A128A1142
:100EE400E8260A128A110130F7070318F80A0030BD
:100EF400F807562F0A128A11BA260A128A110A1200
:100F04008A11C4260A128A111630FC007C08831246
:100F14000313A0000130F6000030F7000230F8009F
:100F24000030F9000A128A112A270A128A11831240
:100F3400031320080A128A1153270A128A1109304E
:100F4400FC007C0883120313A1000230F600003079
:100F5400F7000230F8000030F9000A128A112A273B
:100F64000A128A118312031321080A128A115327C1
:100F74000A128A111030FC007C0883120313A200A9
:100F84000330F6000030F7000230F8000030F900BA
:100F94000A128A112A270A128A11831203132208B9
:100FA4000A128A1153270A128A111C30FC007C0889
:100FB40083120313A3000430F6000030F70002305C
:100FC400F8000030F9000A128A112A270A128A113D
:100FD4008312031323080A128A1153270A128A114F
:100FE4001030F0002730F1000A128A11FB260A1291
:0C0FF4008A117C2F83010A128A117C2FC5
:02400E00323F3F
:00000001FF
