:020000040000FA
:100000000A128A11EF2F00308A000408840A82073E
:100010000034C034F934A434B03499349234823486
:10002000F8348034903400343734133408340334D3
:100030000634193400348E348C348A34883486344F
:0600400084348234803498
:100C10003034831603138501880106309F000230AB
:100C200086008101FF30831203138500FF308800A6
:100C30000800831203130610861286168E300A12DD
:100C40008A1161260A128A1100300A128A1161265D
:100C50000A128A118312031386120800F001F101AF
:100C60000130F0070318F10A0030F1077108803AEB
:100C7000FF0080307F02031D3F2E3C307002031CBA
:100C8000422E432E302E08000A128A1109260A121B
:100C90008A110A128A1119260A128A110A128A1155
:100CA000BA260A128A110A128A118C260A128A118D
:100CB0000A128A1119270A128A11532E0A128A114E
:100CC0000028F400F201F301831203130612061048
:100CD000741C6B2E6C2E6D2E06167408F00003101B
:100CE000700CF1007108F40006140130F2070318CB
:100CF000F30A0030F3077308803AFF0080307F0268
:100D0000031D842E08307202031C872E882E642E49
:100D10008312031306100800831203138616BF30D4
:100D20000A128A1161260A128A11F601F7010A12C3
:100D30008A11E9260A128A11F5007608203E8400FD
:100D40007508831380000130F6070318F70A003096
:100D5000F7077708803AFF0080307F02031DB22E2C
:100D600007307602031CB52EB62E972E831203137E
:100D700086120800831203138616BE300A128A11E7
:100D800061260A128A11F501F60175080B3E8400EE
:100D90000A128A1103200A128A110A128A11612684
:100DA0000A128A110130F5070318F60A0030F60717
:100DB0007608803AFF0080307F02031DE12E083064
:100DC0007502031CE42EE52EC52E83120313861232
:100DD0000800831603130616F201F30183120313AE
:100DE00006107808F0000310700CF1007108F8008C
:100DF000061EFB2EFC2EFD2EF81706140130F207FE
:100E00000318F30A0030F3077308803AFF008030BC
:100E10007F02031D0D2F08307202031C102F112FAB
:100E2000EE2E83160313061283120313061078089E
:100E3000080083120313861C1E2F1F2F2B2F23083D
:100E4000F2007208A0002408F2007208A10026082F
:100E5000F2007208A20020080F39F200F3017208B4
:100E6000F4007308F5007408013E84000A128A1128
:100E700003200A128A1188001F3085000A128A1185
:100E80002E260A128A11831203132008F039F20069
:100E9000F3017208F4007308F500740E0F39F400C2
:100EA000750EF039F404750E0F39F500F030F51DAC
:100EB0000030F5047408013E84000A128A110320F0
:100EC0000A128A1188002F3085000A128A112E26F4
:100ED0000A128A118312031321080F39F200F30159
:100EE0007208F4007308F5007408013E84000A12C9
:100EF0008A1103200A128A117F3988003730850051
:100F00000A128A112E260A128A118312031321084B
:100F1000F039F200F3017208F4007308F500740E62
:100F20000F39F400750EF039F404750E0F39F50021
:100F3000F030F51D0030F5047408013E84000A12FB
:100F40008A1103200A128A1188003B3085000A1298
:100F50008A112E260A128A118312031322080F39CE
:100F6000F200F3017208F4007308F5007408013E02
:100F700084000A128A1103200A128A117F3988001C
:100F80003D3085000A128A112E260A128A11831218
:100F900003132208F039F200F3017208F400730819
:100FA000F500740E0F39F400750EF039F404750E67
:100FB0000F39F500F030F51D0030F5047408013EDE
:100FC00084000A128A1103200A128A1188003E3016
:100FD00085000A128A112E260A128A1108000A12A6
:100FE0008A1108260A128A11F800A001A101A201A3
:100FF000A301A401A501A60183010A128A11442EAE
:02400E00323F3F
:00000001FF
