:020000040000FA
:100000000A128A11E12F00308A000408840A82074C
:100010000034D8340034C8340034D0340034C03410
:020020000034AA
:1007C2000730831603139F008501880183120313E8
:1007D200051508000F300A128A1124240A128A1100
:1007E20001300A128A1124240A128A1138300A129C
:1007F2008A1124240A128A1108000A128A11E1239A
:100802000A128A110A128A1198260A128A110A12E7
:100812008A1166240A128A11032C0A128A110028EC
:100822007E088A007F0882000A128A1111240A12A5
:100832008A118000840A04087D0603190034FF0A25
:100842000319FE0A152CF5008312031385120512F3
:100852007508880085117030F0001730F1000A1217
:100862008A114E240A128A11831203138515080075
:10087200F500831203138516051275088800851189
:100882007030F0001730F1000A128A114E240A1259
:100892008A118312031385150800F301F401572C02
:1008A2000130F3070318F40A0030F4077408803AA1
:1008B200F2007108803A7202031D612C7008730203
:1008C200031C642C652C512C08000A128A11EB239C
:1008D2000A128A1183160313850183120313460831
:1008E2000A128A1139240A128A113E308312031322
:1008F20085002A300A128A119F240A128A110800DE
:10090200C034F934A434B034993492348234F83493
:10091200803490340A3400344634003402340034D3
:100922000734003402340034083400340234003412
:100932003C3400340234003446340034F400740889
:10094200840083130008F0007008F1007408023E6E
:1009520084000008F0007008F2007208F0007008CD
:10096200F3000130F302031DB72CB82CB22C013076
:10097200F102031DBD2CBE2CAE2C0800F501F50AB8
:10098200E72C8312031305108316031305103A3064
:100992000A128A119F240A128A118316031305145C
:1009A20032300A128A119F240A128A118312031307
:1009B200051CDC2CDD2CE02CF501F50AE12CF501FF
:1009C20036300A128A119F240A128A117508031DF1
:1009D200EB2CEC2CC22C0800F6010830F50075084F
:1009E200F7000310F60C831203130510831603138A
:1009F2000510000000000000000000000000831647
:100A02000313051400000000000000000000003085
:100A12008312031305180130C00040080319122D78
:100A2200132D142DF6172E300A128A119F240A1242
:100A32008A110130F7027708031D202D212DF22C97
:100A420076080800F8000830F5007508F900780803
:100A52000139F5007508F700831203130510831698
:100A620003130510000000000000000000007703DF
:100A7200031D3C2D3D2D402D8316031305142E30EE
:100A82000A128A119F240A128A118316031305146B
:100A9200000000007808F5000310750CF6007608D7
:100AA200F8000130F9027908031D582D592D282D1F
:100AB20008007008710403195F2D602D8F2DF50158
:100AC200F50A6E2D01300310F00DF10DFF3E031DEE
:100AD200642D0130F4007408F507F11F712D722D99
:100AE200632D71087302031D782D70087202031CB6
:100AF2007B2D7C2D822D7008F2027108031CF303FA
:100B0200F30201300310F10CF00CFF3E031D832DA4
:100B12000130F502031D8E2D8F2D722D7308F10009
:100B22007208F0000800FB01FC0176087704031943
:100B32009B2D9C2DD32DFD01FD0AAA2D0130031002
:100B4200F60DF70DFF3E031DA02D0130FA007A08C5
:100B5200FD07F71FAD2DAE2D9F2D01300310FB0DAC
:100B6200FC0DFF3E031DAF2D77087902031DBB2D3F
:100B720076087802031CBE2DBF2DC62D7608F8021A
:100B82007708031CF903F9027B1401300310F70CF8
:100B9200F60CFF3E031DC72D0130FD02031DD22DB1
:100BA200D32DAE2D7C08F7007B08F6000800F60175
:100BB200F31FDC2DDD2DE42DF209F309F20A0319EE
:100BC200F30AF601F60AF11FE72DE82DED2DF009E3
:100BD200F109F00A0319F10A700871040319F22DE0
:100BE200F32D222EF501F50A012E01300310F00D2E
:100BF200F10DFF3E031DF72D0130F4007408F507D7
:100C0200F11F042E052EF62D71087302031D0B2E03
:100C120070087202031C0E2E0F2E152E7008F2029F
:100C22007108031CF303F30201300310F10CF00C02
:100C3200FF3E031D162E0130F502031D212E222E2A
:100C4200052E76080319262E272E2C2EF209F309DB
:100C5200F20A0319F30A7308F1007208F00008009F
:100C6200F601F11F352E362E3D2EF009F109F00A5C
:100C72000319F10AF601F60AF31F402E412E4A2EFD
:100C8200F209F309F20A0319F30A0130F4007408B5
:100C9200F606F701F801700871040319512E522E5D
:100CA200892EF501F50A602E01300310F00DF10DC9
:100CB200FF3E031D562E0130F4007408F507F11FA4
:100CC200632E642E552E01300310F70DF80DFF3EF2
:100CD200031D652E71087302031D712E70087202C6
:100CE200031C742E752E7C2E7008F2027108031CF0
:100CF200F303F302771401300310F10CF00CFF3E02
:100D0200031D7D2E0130F502031D882E892E642ECF
:100D1200760803198D2E8E2E932EF709F809F70AFD
:100D22000319F80A7808F1007708F0000800831622
:100D3200031305140A128A11BF240A128A11CC3035
:100D42000A128A1123250A128A1144300A128A11C0
:100D520023250A128A11143083120313CF000030A4
:100D6200D0000A128A1166240A128A11FF308312F5
:100D72000313CF070318D00AFF30D0075008803A78
:100D8200FF0080307F02031DC82E01304F0203187E
:100D9200CB2ECC2EB22E0A128A11BF240A128A112D
:100DA200CC300A128A1123250A128A11BE300A1285
:100DB2008A1123250A128A110A128A11ED240A12B3
:100DC2008A1183120313CB004B08CA000A128A113C
:100DD200ED240A128A1183120313CB004B08C900B7
:100DE200831603130514831203134908CB0004303E
:100DF2000310CB0DFF3E031DF92E3F304B05CC00F7
:100E02004A08CD0004300310CD0CFF3E031D042F11
:100E12004D084C04CE004E08C8004A08CB000330EF
:100E22000310CB0DFF3E031D112F03104B0DCC0001
:100E32004C08C7000A30F0000030F1004808CB002F
:100E4200CC014B08F2004C08F3000A128A11D82593
:100E52000A128A11700883120313CD004D08C500CF
:100E62000A30F0000030F1004808CB00CC014B08FA
:100E7200F2004C08F3000A128A1131260A128A1172
:100E8200700883120313CD004D08C600BE01BF01D6
:100E9200C71F4C2F4D2F552F3E08883EBE003F08DE
:100EA2000318013E133EBF00471F582F592F612FD1
:100EB2003E08C43EBE003F080318013E093EBF0083
:100EC200C71E642F652F6D2F3E08E23EBE003F080D
:100ED2000318013E043EBF00471E702F712F792F69
:100EE2003E08713EBE003F080318013E023EBF00AD
:100EF200E830F6000330F7003F08F9003E08F8003A
:100F02000A128A1194250A128A117608831203138F
:100F1200CB004B08C4006430F6000030F7003F08F5
:100F2200F3003E08F200E830F0000330F1000A124C
:100F32008A115A250A128A117108F9007008F800FC
:100F42000A128A1194250A128A117608831203134F
:100F5200CB004B08C3000A30F6000030F7003F0810
:100F6200F3003E08F2006430F0000030F1000A1293
:100F72008A115A250A128A117108F9007008F800BC
:100F82000A128A1194250A128A117608831203130F
:100F9200CB004B08C2000A30F0000030F1003F08DD
:100FA200F3003E08F2000A128A115A250A128A1127
:100FB200700883120313CB004B08C1000000080025
:100FC20083133E30FD000430FE008130FF002030EC
:100FD20084000A128A1115240A128A11BE01BF0165
:100FE200C001C101C201C301C401C501C601C701DB
:0E0FF200C801C901CA0183010A128A11FE2B2F
:02400E00323F3F
:00000001FF
