:020000040000FA
:100000000A128A11E12F00308A000408840A82074C
:100010000034D8340034C8340034D0340034C03410
:020020000034AA
:100796000730831603139F008501880187018312A2
:1007A6000313051508000F300A128A1124240A12B1
:1007B6008A1138300A128A1124240A128A11013049
:1007C6000A128A1124240A128A1108000A128A11AE
:1007D600CB230A128A110A128A11D6230A128A1107
:1007E6000A128A11B4260A128A11EE2B0A128A11EB
:1007F60000287E088A007F0882000A128A11FC23DC
:100806000A128A118000840A04087D06031900343E
:10081600FF0A0319FE0A002CF5008312031385163E
:1008260005127508880085113C30F0000030F10093
:100836000A128A1139240A128A11831203138515A2
:100846000800F50083120313851205127508880047
:1008560085113C30F0000030F1000A128A1139246B
:100866000A128A118312031385150800F301F40195
:10087600422C0130F3070318F40A0030F407740819
:10088600803AF2007108803A7202031D4C2C7008FF
:100896007302031C4F2C502C3C2C0800C034F93436
:1008A600A434B034993492348234F8348034903499
:1008B6000134003446340034023400340734003442
:1008C6000234003408340034023400343C3400343A
:1008D6000234003446340034F40074088400831370
:1008E6000008F0007008F1007408023E8400000859
:1008F600F0007008F2007208F0007008F300013092
:10090600F302031D872C882C822C0130F102031D73
:100916008D2C8E2C7E2C0800F501F50AB72C83123F
:10092600031307108316031307103A300A128A11AD
:100936006F240A128A1183160313071432300A121F
:100946008A116F240A128A1183120313071CAC2C16
:10095600AD2CB02CF501F50AB12CF50136300A1292
:100966008A116F240A128A117508031DBB2CBC2C30
:10097600922C0800F6010830F5007508F700031000
:10098600F60C8312031307108316031307100000D7
:100996000000000000000000000083160313071487
:1009A6000000000000000000000000308312031366
:1009B60007180130C00040080319E22CE32CE42C90
:1009C600F6172E300A128A116F240A128A11013084
:1009D600F7027708031DF02CF12CC22C76080800CC
:1009E600F8000830F5007508F90078080139F500B7
:1009F6007508F700831203130710831603130710F5
:100A0600000000000000000000007703031D0C2D0D
:100A16000D2D102D8316031307142E300A128A117A
:100A26006F240A128A1183160313071400000000AC
:100A36007808F5000310750CF6007608F80001300A
:100A4600F9027908031D282D292DF82C08007008B5
:100A5600710403192F2D302D5F2DF501F50A3E2D5A
:100A660001300310F00DF10DFF3E031D342D013052
:100A7600F4007408F507F11F412D422D332D71083E
:100A86007302031D482D70087202031C4B2D4C2D5A
:100A9600522D7008F2027108031CF303F3020130B1
:100AA6000310F10CF00CFF3E031D532D0130F5022F
:100AB600031D5E2D5F2D422D7308F1007208F000B4
:100AC6000800FB01FC017608770403196B2D6C2DD9
:100AD600A32DFD01FD0A7A2D01300310F60DF70D49
:100AE600FF3E031D702D0130FA007A08FD07F71F3F
:100AF6007D2D7E2D6F2D01300310FB0DFC0DFF3E6D
:100B0600031D7F2D77087902031D8B2D7608780249
:100B1600031C8E2D8F2D962D7608F8027708031C60
:100B2600F903F9027B1401300310F70CF60CFF3EB3
:100B3600031D972D0130FD02031DA22DA32D7E2D31
:100B46007C08F7007B08F600080001300A128A11BB
:100B560024240A128A11831203134608303E0A120D
:100B66008A110F240A128A11831203134508303E94
:100B76000A128A110F240A128A112E300A128A11B9
:100B86000F240A128A11831203134408303E0A12F4
:100B96008A110F240A128A11831203134308303E66
:100BA6000A128A110F240A128A11831203134208A9
:100BB600303E0A128A110F240A128A118312031375
:100BC6004108303E0A128A110F240A128A11103087
:100BD600F0002730F1000A128A1139240A128A110C
:100BE6000800F601F31FF82DF92D002EF209F3097E
:100BF600F20A0319F30AF601F60AF11F032E042E70
:100C0600092EF009F109F00A0319F10A70087104B6
:100C160003190E2E0F2E3E2EF501F50A1D2E01305C
:100C26000310F00DF10DFF3E031D132E0130F400ED
:100C36007408F507F11F202E212E122E710873025B
:100C4600031D272E70087202031C2A2E2B2E312E0E
:100C56007008F2027108031CF303F302013003105B
:100C6600F10CF00CFF3E031D322E0130F502031D80
:100C76003D2E3E2E212E76080319422E432E482E57
:100C8600F209F309F20A0319F30A7308F10072086C
:100C9600F0000800F601F11F512E522E592EF009D0
:100CA600F109F00A0319F10AF601F60AF31F5C2EA0
:100CB6005D2E662EF209F309F20A0319F30A0130D2
:100CC600F4007408F606F701F801700871040319B8
:100CD6006D2E6E2EA52EF501F50A7C2E0130031021
:100CE600F00DF10DFF3E031D722E0130F400740865
:100CF600F507F11F7F2E802E712E01300310F70DA0
:100D0600F80DFF3E031D812E71087302031D8D2E03
:100D160070087202031C902E912E982E7008F20213
:100D26007108031CF303F302771401300310F10C6E
:100D3600F00CFF3E031D992E0130F502031DA42E73
:100D4600A52E802E76080319A92EAA2EAF2EF709F6
:100D5600F809F70A0319F80A7808F1007708F0008D
:100D660008008316031307140A128A118F240A1225
:100D76008A11CC300A128A11F3240A128A114430DD
:100D86000A128A11F3240A128A110A128A11A82554
:100D96000A128A110A128A118F240A128A11CC3079
:100DA6000A128A11F3240A128A11BE300A128A1113
:100DB600F3240A128A110A128A11BD240A128A1110
:100DC60083120313CB004B08CA000A128A11BD24F2
:100DD6000A128A1183120313CB004B08C90083162B
:100DE60003130714831203134908CB0004300310BE
:100DF600CB0DFF3E031DFA2E3F304B05CC004A08B3
:100E0600CD0004300310CD0CFF3E031D052F4D0809
:100E16004C04CE004E08C8004A08CB00033003102D
:100E2600CB0DFF3E031D122F03104B0DCC004C08BB
:100E3600C7000A30F0000030F1004808CB00CC01B2
:100E46004B08F2004C08F3000A128A11F4250A1224
:100E56008A11700883120313CD004D08C5000A30AD
:100E6600F0000030F1004808CB00CC014B08F2003E
:100E76004C08F3000A128A114D260A128A117008CC
:100E860083120313CD004D08C600BE01BF01C71F64
:100E96004D2F4E2F562F3E08883EBE003F080318A2
:100EA600013E133EBF00471F592F5A2F622F3E089F
:100EB600C43EBE003F080318013E093EBF00C71EE0
:100EC600652F662F6E2F3E08E23EBE003F080318D0
:100ED600013E043EBF00471E712F722F7A2F3E0837
:100EE600713EBE003F080318013E023EBF00E830D7
:100EF600F6000330F7003F08F9003E08F8000A1232
:100F06008A1164250A128A11760883120313CB000C
:100F16004B08C4006430F6000030F7003F08F300C9
:100F26003E08F200E830F0000330F1000A128A11A0
:100F36002A250A128A117108F9007008F8000A12A7
:100F46008A1164250A128A11760883120313CB00CC
:100F56004B08C3000A30F6000030F7003F08F300E4
:100F66003E08F2006430F0000030F1000A128A11E7
:100F76002A250A128A117108F9007008F8000A1267
:100F86008A1164250A128A11760883120313CB008C
:100F96004B08C2000A30F0000030F1003F08F300B1
:100FA6003E08F2000A128A112A250A128A117008CE
:100FB60083120313CB004B08C100080083133E3095
:100FC600FD000430FE005130FF00203084000A127C
:100FD6008A1100240A128A11BE01BF01C001C10193
:100FE600C201C301C401C501C601C701C801C901C7
:0A0FF600CA0183010A128A11E92BD7
:02400E00323F3F
:00000001FF
