:020000040000FA
:100000000A128A11E12F00308A000408840A82074C
:100010000034D8340034C8340034D0340034C03410
:0E0020000034483465346C346C346F34003472
:100D6C000730831603139F00850188018312031338
:100D7C00051508007E088A007F0882000A128A1175
:100D8C00C0260A128A118000840A04087D06031901
:100D9C000034FF0A0319FE0AC42EF5008312031354
:100DAC00851205127508880085117030F000173017
:100DBC00F1000A128A11FD260A128A1183120313FA
:100DCC0085150800F50083120313851605127508A6
:100DDC00880085117030F0001730F1000A128A116A
:100DEC00FD260A128A118312031385150800F301DC
:100DFC00F401062F0130F3070318F40A0030F4074E
:100E0C007408803AF2007108803A7202031D102FA8
:100E1C0070087302031C132F142F002F0800F3000B
:100E2C00F401F5011F2F0130F4070318F50A003007
:100E3C00F5077408730784000A128A1103200A123A
:100E4C008A11003A031D2B2F2C2F192F7508F10036
:100E5C007408F0000800C034F934A434B034993468
:100E6C0092348234F834803490340A34003446346A
:100E7C0000340234003407340034023400340834B3
:100E8C000034023400343C34003402340034463430
:100E9C0000340A128A11B6260A128A110930FC0093
:100EAC007C08FD000130F6000030F7000230F8003D
:100EBC000030F9000A128A119B270A128A117D0848
:100ECC000A128A116F270A128A11542F0A128A11D8
:100EDC000028F900F701F801862F770879078400BC
:100EEC000A128A1103200A128A110A128A11E826A0
:100EFC000A128A110130F7070318F80A0030F807B4
:100F0C0079080A128A1115270A128A117808803A70
:100F1C00F6007108803A7602031D962F700877024E
:100F2C00031C992F9A2F732F080076037704031D47
:100F3C00A02FA12FAA2F7808C03EFA007908031819
:100F4C00013E003EFB00DA2F023076067704031DCB
:100F5C00B02FB12FBA2F7808D03EFA0079080318B9
:100F6C00013E003EFB00DA2F033076067704031DAA
:100F7C00C02FC12FCA2F7808C83EFA007908031871
:100F8C00013E003EFB00DA2F043076067704031D89
:100F9C00D02FD12FDA2F7808D83EFA007908031811
:100FAC00013E003EFB00DA2F7A080A128A11D32682
:100FBC000A128A11080083133E30FD000730FE0030
:100FCC003130FF00203084000A128A11C4260A1224
:100FDC008A11BE01BF01C001C101C201C301C4011C
:100FEC00C501C601C701C801C901CA0183010A12A2
:040FFC008A114F2FD8
:02400E00323F3F
:00000001FF
