:020000040000FA
:100000000A128A11E32F00308A000408840A82074A
:100010000034D8340034C8340034D0340034C03410
:020020000034AA
:1007D6007608303E0A128A111E2408000730831656
:1007E60003139F00850188018701831203130515F2
:1007F60008000F300A128A1131240A128A11383081
:100806000A128A1131240A128A1101300A128A1137
:10081600312408007E088A007F0882000D240A120F
:100826008A118000840A04087D0603190034FF0A31
:100836000319FE0A112CF5008312031385160512FF
:100846007508880085113C30F0000030F1000A126E
:100856008A1144248312031385150800F5008312B8
:100866000313851205127508880085113C30F000C7
:100876000030F1000A128A114424831203138515ED
:100886000800F301F4017408803AF2007108803A16
:100896007202031D502C7008730203180800013001
:1008A600F3070318F40A0030F407462CF400740822
:1008B600840083130008F0007008F1007408023EFB
:1008C60084000008F0007008F2007208F00070085A
:1008D600F3000130F302031D6C2C0130F102031901
:1008E6000800682C0A128A11F1230A128A110A12C8
:1008F6008A11FC230A128A110A128A1150260A1238
:100906008A110A128A11B0260A128A111030F000D2
:100916002730F1000A128A1144240A128A117F2C08
:10092600C034F934A434B034993492348234F8346F
:1009360080349034013400344634003402340034B8
:1009460007340034023400340834003402340034EE
:100956003C3400340234003446340034F501F50AE0
:10096600750803190800831203130710831603136F
:1009760007103A300A128A1159240A128A1183166C
:100986000313071432300A128A1159240A128A11E3
:1009960083120313071CD22CF501F50AD32CF5019B
:1009A60036300A128A1159240A128A11B32CF6011A
:1009B6000830F5007508F7000310F60C83120313D0
:1009C6000710831603130710000000000000000044
:1009D6000000000083160313071400000000000047
:1009E6000000000000308312031307180130C00016
:1009F6004008031DF6172E300A128A1159240A12CE
:100A06008A110130F7027708031DDF2C76080800EB
:100A1600700871040319382DF501F50AF11B1F2D15
:100A260001300310F00DF10DFF3E031D142D0130B2
:100A3600F4007408F507112D71087302031D252DA6
:100A460070087202031C2D2D7008F2027108031C37
:100A5600F303F30201300310F10CF00CFF3E031D0B
:100A66002E2D0130F502031D1F2D7308F1007208AB
:100A7600F0000800F8000830F5007508F90078085D
:100A86000139F5007508F700831203130710831662
:100A960003130710000000000000000000007703A9
:100AA600031D582D8316031307142E300A128A11BC
:100AB60059240A128A118316031307140000000032
:100AC6007808F5000310750CF6007608F80001307A
:100AD600F902790803190800422DFB01FC0176088A
:100AE60077040319A72DFD01FD0AF71B862D01309A
:100AF6000310F60DF70DFF3E031D7B2D0130FA00A6
:100B06007A08FD07782D01300310FB0DFC0DFF3E22
:100B1600031D872D77087902031D932D7608780229
:100B2600031C9C2D7608F8027708031CF903F902CA
:100B36007B1401300310F70CF60CFF3E031D9D2DB0
:100B46000130FD02031D862D7C08F7007B08F600A8
:100B56000800F601F31FB62DF209F309F20A03198C
:100B6600F30AF601F60AF11FBD2DF009F109F00AA4
:100B76000319F10A700871040319EA2DF501F50A43
:100B8600F11BD12D01300310F00DF10DFF3E031DB9
:100B9600C62D0130F4007408F507C32D71087302E1
:100BA600031DD72D70087202031CDF2D7008F20298
:100BB6007108031CF303F30201300310F10CF00C6F
:100BC600FF3E031DE02D0130F502031DD12D7608F1
:100BD6000319F22DF209F309F20A0319F30A73084D
:100BE600F1007208F0000800F601F11F012EF0096D
:100BF600F109F00A0319F10AF601F60AF31F0C2EA1
:100C0600F209F309F20A0319F30A0130F400740831
:100C1600F606F701F801700871040319432EF50171
:100C2600F50AF11B222E01300310F00DF10DFF3EE7
:100C3600031D172E0130F4007408F507142E013039
:100C46000310F70DF80DFF3E031D232E71087302E6
:100C5600031D2F2E70087202031C382E7008F20234
:100C66007108031CF303F302771401300310F10C2F
:100C7600F00CFF3E031D392E0130F502031D222E16
:100C8600760803194B2EF709F809F70A0319F80A2B
:100C96007808F1007708F00008008316031307149C
:100CA6000A128A11B1240A128A11CC300A128A1148
:100CB6003D250A128A1144300A128A113D250A126C
:100CC6008A112030F0004E30F1000A128A114424B5
:100CD6000A128A110A128A11B1240A128A11CC3018
:100CE6000A128A113D250A128A11BE300A128A1189
:100CF6003D250A128A110A128A11DA240A128A1169
:100D0600FA007A0883120313CA000A128A11DA2437
:100D16000A128A11FA007A0883120313C90083168D
:100D260003130714831203134908FA00043003104F
:100D3600FA0DFF3E031D9A2E3F307A05FB004A0846
:100D4600FC0004300310FC0CFF3E031DA52E7C089E
:100D56007B04FD007D08C8000800831203134A08BF
:100D6600CB0003300310CB0DFF3E031DB52E031041
:100D76004B0DCC004C08C7000A30F0000030F100E3
:100D86004808CB00CC014B08F2004C08F3000A12CD
:100D96008A11AC250A128A11700883120313CD003A
:100DA6004D08C5000A30F0000030F1004808CB00BD
:100DB600CC014B08F2004C08F3000A128A11F72501
:100DC6000A128A11700883120313CD004D08C6005B
:100DD600BE01BF01C71FF72E3E08883EBE003F0872
:100DE6000318013E133EBF00471F012F3E08C43EB5
:100DF600BE003F080318013E093EBF00C71E0B2F69
:100E06003E08E23EBE003F080318013E043EBF0016
:100E1600471E152F3E08713EBE003F080318013ECF
:100E2600023EBF00E830F6000330F7003F08F90045
:100E36003E08F8000A128A1170250A128A117608ED
:100E460083120313CB004B08C4006430F600003055
:100E5600F7003F08F3003E08F200E830F0000330E8
:100E6600F1000A128A110B250A128A117108F9007B
:100E76007008F8000A128A1170250A128A1176087B
:100E860083120313CB004B08C3000A30F600003070
:100E9600F7003F08F3003E08F2006430F00000302F
:100EA600F1000A128A110B250A128A117108F9003B
:100EB6007008F8000A128A1170250A128A1176083B
:100EC60083120313CB004B08C2000A30F000003037
:100ED600F1003F08F3003E08F2000A128A110B25C2
:100EE6000A128A11700883120313CB004B08C10043
:100EF60001300A128A1131240A128A11831203134D
:100F06004608CB00CC014B08F6004C08F7000A1245
:100F16008A11EB230A128A11831203134508CB00A8
:100F2600CC014B08F6004C08F7000A128A11EB2395
:100F36000A128A112E300A128A111E240A128A11E6
:100F4600831203134408CB00CC014B08F6004C086F
:100F5600F7000A128A11EB230A128A11831203136D
:100F66004308CB00CC014B08F6004C08F7000A12E8
:100F76008A11EB230A128A11831203134208CB004B
:100F8600CC014B08F6004C08F7000A128A11EB2335
:100F96000A128A11831203134108CB00CC014B08B5
:100FA600F6004C08F7000A128A11EB230A128A117E
:100FB6001030F0002730F1000A128A11442408008C
:100FC60083133E30FD000430FE009330FF002030D6
:100FD60084000A128A111124BE01BF01C001C10199
:100FE600C201C301C401C501C601C701C801C901C7
:0A0FF600CA0183010A128A11752C4A
:02400E00323F3F
:00000001FF
