:020000040000FA
:100000000A128A11E12F00308A000408840A82074C
:100010000034D8340034C8340034D0340034C03410
:020020000034AA
:1007AA000730831603139F00850188018312031300
:1007BA00051508000F300A128A111A240A128A1122
:1007CA0001300A128A111A240A128A1138300A12BE
:1007DA008A111A240A128A1108007E088A007F08E0
:1007EA0082000A128A11F2230A128A118000840AEC
:1007FA0004087D0603190034FF0A0319FE0AF62BC2
:10080A00F5008312031385160512750888008511F1
:10081A007030F0001730F1000A128A112F240A12E0
:10082A008A118312031385150800F5008312031336
:10083A00851205127508880085117030F00017308E
:10084A00F1000A128A112F240A128A118312031341
:10085A0085150800F301F401382C0130F307031859
:10086A00F40A0030F4077408803AF2007108803AFA
:10087A007202031D422C70087302031C452C462C7D
:10088A00322C08000A128A11D5230A128A110A1276
:10089A008A11DF230A128A110A128A11B9260A1248
:1008AA008A110A128A1172250A128A11512C0A1205
:1008BA008A110028C034F934A434B03499349234FB
:1008CA008234F834803490340134003446340034AD
:1008DA00023400340734003402340034083400345B
:1008EA00023400343C3400340234003446340034D8
:1008FA00F4007408840083130008F0007008F10003
:10090A007408023E84000008F0007008F2007208C1
:10091A00F0007008F3000130F302031D952C962CA9
:10092A00902C0130F102031D9B2C9C2C8C2C08006E
:10093A00F501F50AC52C8312031309108316031354
:10094A0009103A300A128A117D240A128A11831672
:10095A000313091432300A128A117D240A128A11E9
:10096A0083120313091CBA2CBB2CBE2CF501F50A01
:10097A00BF2CF50136300A128A117D240A128A1117
:10098A007508031DC92CCA2CA02C0800F6010830D2
:10099A00F5007508F7000310F60C8312031309100B
:1009AA008316031309100000000000000000000075
:1009BA000000831603130914000000000000000061
:1009CA00000000308312031309180130C0004008E8
:1009DA000319F02CF12CF22CF6172E300A128A1178
:1009EA007D240A128A110130F7027708031DFE2CB2
:1009FA00FF2CD02C76080800F8000830F50075089E
:100A0A00F90078080139F5007508F7008312031315
:100A1A0009108316031309100000000000000000EB
:100A2A0000007703031D1A2D1B2D1E2D8316031399
:100A3A0009142E300A128A117D240A128A11831689
:100A4A0003130914000000007808F5000310750C60
:100A5A00F6007608F8000130F9027908031D362DF0
:100A6A00372D062D08007008710403193D2D3E2DFF
:100A7A006D2DF501F50A4C2D01300310F00DF10D25
:100A8A00FF3E031D422D0130F4007408F507F11FE3
:100A9A004F2D502D412D71087302031D562D7008DC
:100AAA007202031C592D5A2D602D7008F20271082A
:100ABA00031CF303F30201300310F10CF00CFF3EA8
:100ACA00031D612D0130F502031D6C2D6D2D502D76
:100ADA007308F1007208F000080083120313460835
:100AEA00303E0A128A1105240A128A11831203134C
:100AFA004508303E0A128A1105240A128A112E303C
:100B0A000A128A1105240A128A118312031344084D
:100B1A00303E0A128A1105240A128A11831203131B
:100B2A004308303E0A128A1105240A128A118312D6
:100B3A0003134208303E0A128A1105240A128A1146
:100B4A00831203134108303E0A128A1105240A123D
:100B5A008A1101300A128A111A240A128A1108000B
:100B6A00FB01FC01760877040319BC2DBD2DF42D79
:100B7A00FD01FD0ACB2D01300310F60DF70DFF3EE6
:100B8A00031DC12D0130FA007A08FD07F71FCE2D8B
:100B9A00CF2DC02D01300310FB0DFC0DFF3E031DB0
:100BAA00D02D77087902031DDC2D76087802031C04
:100BBA00DF2DE02DE72D7608F8027708031CF903EC
:100BCA00F9027B1401300310F70CF60CFF3E031DEB
:100BDA00E82D0130FD02031DF32DF42DCF2D7C08E5
:100BEA00F7007B08F6000800F601F31FFD2DFE2D25
:100BFA00052EF209F309F20A0319F30AF601F60AB5
:100C0A00F11F082E092E0E2EF009F109F00A031918
:100C1A00F10A700871040319132E142E432EF501DC
:100C2A00F50A222E01300310F00DF10DFF3E031DCF
:100C3A00182E0130F4007408F507F11F252E262E10
:100C4A00172E71087302031D2C2E70087202031CE2
:100C5A002F2E302E362E7008F2027108031CF30371
:100C6A00F30201300310F10CF00CFF3E031D372E86
:100C7A000130F502031D422E432E262E7608031953
:100C8A00472E482E4D2EF209F309F20A0319F30AE8
:100C9A007308F1007208F0000800F601F11F562EE1
:100CAA00572E5E2EF009F109F00A0319F10AF6012E
:100CBA00F60AF31F612E622E6B2EF209F309F20A6D
:100CCA000319F30A0130F4007408F606F701F80173
:100CDA00700871040319722E732EAA2EF501F50AF3
:100CEA00812E01300310F00DF10DFF3E031D772E0A
:100CFA000130F4007408F507F11F842E852E762E34
:100D0A0001300310F70DF80DFF3E031D862E710802
:100D1A007302031D922E70087202031C952E962EE2
:100D2A009D2E7008F2027108031CF303F302771474
:100D3A0001300310F10CF00CFF3E031D9E2E013012
:100D4A00F502031DA92EAA2E852E76080319AE2EAA
:100D5A00AF2EB42EF709F809F70A0319F80A78082A
:100D6A00F1007708F00008008316031309140A1229
:100D7A008A119D240A128A11CC300A128A1101257D
:100D8A000A128A1144300A128A1101250A128A119A
:100D9A000A128A119D240A128A11CC300A128A1167
:100DAA0001250A128A11BE300A128A1101250A1275
:100DBA008A110A128A11CB240A128A118312031386
:100DCA00CB004B08CA000A128A11CB240A128A11D4
:100DDA0083120313CB004B08C900831603130914AB
:100DEA00831203134908CB0004300310CB0DFF3ED6
:100DFA00031DFA2E3F304B05CC004A08CD000430C3
:100E0A000310CD0CFF3E031D052F4D084C04CE00E8
:100E1A004E08C8004A08CB0003300310CB0DFF3E32
:100E2A00031D122F03104B0DCC004C08C7000A30CB
:100E3A00F0000030F1004808CB00CC014B08F2006A
:100E4A004C08F3000A128A11F9250A128A1170084D
:100E5A0083120313CD004D08C5000A30F00000309C
:100E6A00F1004808CB00CC014B08F2004C08F30013
:100E7A000A128A1152260A128A117008831203135F
:100E8A00CD004D08C600BE01BF01C71F4D2F4E2F12
:100E9A00562F3E08883EBE003F080318013E133E07
:100EAA00BF00471F592F5A2F622F3E08C43EBE006B
:100EBA003F080318013E093EBF00C71E652F662F73
:100ECA006E2F3E08E23EBE003F080318013E043E74
:100EDA00BF00471E712F722F7A2F3E08713EBE0047
:100EEA003F080318013E023EBF00E830F600033017
:100EFA00F7003F08F9003E08F8000A128A11B525E2
:100F0A000A128A11760883120313CB004B08C40015
:100F1A006430F6000030F7003F08F3003E08F200A4
:100F2A00E830F0000330F1000A128A1138250A125B
:100F3A008A117108F9007008F8000A128A11B52599
:100F4A000A128A11760883120313CB004B08C300D6
:100F5A000A30F6000030F7003F08F3003E08F200BE
:100F6A006430F0000030F1000A128A1138250A12A2
:100F7A008A117108F9007008F8000A128A11B52559
:100F8A000A128A11760883120313CB004B08C20097
:100F9A000A30F0000030F1003F08F3003E08F2008A
:100FAA000A128A1138250A128A1170088312031349
:100FBA00CB004B08C100080083133E30FD0004300B
:100FCA00FE005F30FF00203084000A128A11F623E7
:100FDA000A128A11BE01BF01C001C101C201C301C7
:100FEA00C401C501C601C701C801C901CA018301FB
:060FFA000A128A11472CC7
:02400E00323F3F
:00000001FF
