:020000040000FA
:100000000A128A11E52F00308A000408840A820748
:100010000034D8340034C8340034D0340034C03410
:020020000034AA
:1007D0000730831603139F00850188018701831268
:1007E0000313051508002E3076067704031DFD2B34
:1007F00076080A128A11382408007608303E0A1258
:100800008A11382408000F300A128A1125240A128E
:100810008A1138300A128A1125240A128A110130ED
:100820000A128A11252408007E088A007F088200A7
:1008300014240A128A118000840A04087D06031910
:100840000034FF0A0319FE0A182CF5008312031363
:10085000851205127508880085113C30F0000030C3
:10086000F1000A128A114B24831203138515080024
:10087000F50083120313851605127508880085118B
:100880003C30F0000030F1000A128A114B24831230
:10089000031385150800F301F4017408803AF2008F
:1008A0007108803A7202031D572C700873020318F6
:1008B00008000130F3070318F40A0030F4074D2C48
:1008C000F300F401F50174087307F2007208840064
:1008D000831300080319732C0130F4070318F50A79
:1008E0000030F507632C7508F1007408F00008006B
:1008F000F4007408840083130008F0007008F1000D
:100900007408023E84000008F0007008F2007208CB
:10091000F0007008F3000130F302031D8B2C01304E
:10092000F10203190800872CC034F934A434B03420
:10093000993492348234F834803490340134003461
:1009400046340034023400340734003402340034B6
:1009500008340034023400343C34003402340034AF
:1009600046340034F501F50A7508031908008312AE
:10097000031309108316031309103A300A128A115F
:1009800078240A128A1183160313091432300A12CA
:100990008A1178240A128A1183120313091CD32C9A
:1009A000F501F50AD42CF50136300A128A117824A3
:1009B0000A128A11B42CFD00FB01FC017D080A1209
:1009C0008A1160240A128A117C08803AF8007108A2
:1009D000803A7802031DEE2C70087B020318080091
:1009E0007B087D07F8007808840083130008F9006D
:1009F000FA017908F6007A08F7000A128A11F3233F
:100A00000A128A110130FB070318FC0A0030FC07A8
:100A1000DE2CF6010830F5007508F7000310F60C1F
:100A2000831203130910831603130910000000003A
:100A300000000000000000008316031309140000EA
:100A400000000000000000000030831203130918AA
:100A50000130BE003E08031DF6172E300A128A111F
:100A600078240A128A110130F7027708031D0E2D2F
:100A700076080800700871040319672DF501F50A5E
:100A8000F11B4E2D01300310F00DF10DFF3E031D43
:100A9000432D0130F4007408F507402D71087302EE
:100AA000031D542D70087202031C5C2D7008F202A5
:100AB0007108031CF303F30201300310F10CF00C76
:100AC000FF3E031D5D2D0130F502031D4E2D730801
:100AD000F1007208F0000800F8000830F500750811
:100AE000F90078080139F5007508F700831203133F
:100AF0000910831603130910000000000000000015
:100B000000007703031D872D8316031309142E306D
:100B10000A128A1178240A128A11831603130914FF
:100B2000000000007808F5000310750CF600760848
:100B3000F8000130F902790803190800712D0A1232
:100B40008A11E8230A128A110A128A1103240A124E
:100B50008A111030F0002730F1000A128A114B245C
:100B60000A128A110A128A11B8260A128A117B08FF
:100B700083120313D2007A08D1005208CA00510828
:100B8000C9000A128A111B270A128A118312031341
:100B9000D0005008D30053080A128A11DB240A122D
:100BA0008A1120300A128A1138240A128A11A92DBA
:100BB000FB01FC017608770403190F2EFD01FD0AE5
:100BC000F71BEE2D01300310F60DF70DFF3E031D50
:100BD000E32D0130FA007A08FD07E02D0130031003
:100BE000FB0DFC0DFF3E031DEF2D77087902031D61
:100BF000FB2D76087802031C042E7608F80277088D
:100C0000031CF903F9027B1401300310F70CF60CF6
:100C1000FF3E031D052E0130FD02031DEE2D7C0855
:100C2000F7007B08F6000800F601F31F1E2EF209FC
:100C3000F309F20A0319F30AF601F60AF11F252E49
:100C4000F009F109F00A0319F10A70087104031997
:100C5000522EF501F50AF11B392E01300310F00D6B
:100C6000F10DFF3E031D2E2E0130F4007408F50730
:100C70002B2E71087302031D3F2E70087202031C95
:100C8000472E7008F2027108031CF303F3020130CF
:100C90000310F10CF00CFF3E031D482E0130F5024D
:100CA000031D392E760803195A2EF209F309F20AA8
:100CB0000319F30A7308F1007208F0000800F60146
:100CC000F11F692EF009F109F00A0319F10AF60182
:100CD000F60AF31F742EF209F309F20A0319F30A54
:100CE0000130F4007408F606F701F8017008710489
:100CF0000319AB2EF501F50AF11B8A2E0130031002
:100D0000F00DF10DFF3E031D7F2E0130F40074083D
:100D1000F5077C2E01300310F70DF80DFF3E031D83
:100D20008B2E71087302031D972E70087202031C2C
:100D3000A02E7008F2027108031CF303F30277146B
:100D400001300310F10CF00CFF3E031DA12E013009
:100D5000F502031D8A2E76080319B32EF709F80948
:100D6000F70A0319F80A7808F1007708F00008007C
:100D70008316031309140A128A11B2240A128A1163
:100D8000CC300A128A116C250A128A1144300A12D8
:100D90008A116C250A128A112030F0004E30F100C1
:100DA0000A128A114B240A128A110A128A11B224D9
:100DB0000A128A11CC300A128A116C250A128A1181
:100DC000BE300A128A116C250A128A110A128A117F
:100DD00009250A128A1183120313C9004908C000A9
:100DE0000A128A1109250A128A1183120313C900F3
:100DF0004908BF00831603130914831203133F0825
:100E0000C90004300310C90DFF3E031D022F3F30FF
:100E10004905CA004008CB0004300310CB0CFF3E4C
:100E2000031D0D2F4B084A04CC00CD014C08FA00DD
:100E30004D08FB00080083120313CE01CF014008C8
:100E4000CB0003300310CB0DFF3E031D222F0310F8
:100E50004B0DCC004C08CD000A30F0000030F10002
:100E60004A08F3004908F2000A128A115F260A12A2
:100E70008A11700883120313CB004B08C1000A309B
:100E8000F0000030F1004A08F3004908F2000A12AD
:100E90008A1114260A128A11700883120313CB00D8
:100EA0004B08C2002E30CB004B08C300CD1F602F73
:100EB0004E08883ECE004F080318013E133ECF0077
:100EC0004D1F6A2F4E08C43ECE004F080318013E46
:100ED000093ECF00CD1E742F4E08E23ECE004F08D3
:100EE0000318013E043ECF004D1E7E2F4E08713E7A
:100EF000CE004F080318013E023ECF00E830F60056
:100F00000330F7004F08F9004E08F8000A128A1162
:100F1000D8250A128A11760883120313CB004B08D6
:100F2000C4006430F6000030F7004F08F3004E08AC
:100F3000F200E830F0000330F1000A128A113A257D
:100F40000A128A117108F9007008F8000A128A1151
:100F5000D8250A128A11760883120313CB004B0896
:100F6000C5000A30F6000030F7004F08F3004E08C5
:100F7000F2006430F0000030F1000A128A113A25C4
:100F80000A128A117108F9007008F8000A128A1111
:100F9000D8250A128A11760883120313CB004B0856
:100FA000C6000A30F0000030F1004F08F3004E0890
:100FB000F2000A128A113A25700883120313CB003B
:100FC0004B08C700C8014130080083133E30FD00C4
:100FD0000430FE009430FF00203084000A128A1191
:100FE0001824BE01BF01C001C101C201C301C40177
:100FF000C501C601C701C80183010A128A119F2DCC
:02400E00323F3F
:00000001FF
