:020000040000FA
:100000000A128A11F82F00308A000408840A820735
:100010000034D8340034C8340034D0340034C03410
:020020000034AA
:100EF6008316031389108312031389100800073021
:100F0600831603139F00850188018701831203134B
:100F1600051508000A128A1182270A128A110A1276
:100F26008A117B270A128A11D430F0003030F10082
:100F36008830F2001330F3000130F4000030F50081
:100F46000A128A11AC270A128A11972F0A128A11DD
:100F56000028F701F801E92F831203138914F90118
:100F6600FA01BB2F0130F9070318FA0A0030FA0715
:100F76007A08803AF6007108803A7602031DC52F7A
:100F860070087902031CC82FC92FB52F83120313CB
:100F96008910FB01FC01D52F0130FB070318FC0A61
:100FA6000030FC077C08803AF6007308803A760227
:100FB600031DDF2F72087B02031CE22FE32FCF2FC6
:100FC6000130F7070318F80A0030F8077808803A66
:100FD600F6007508803A7602031DF32F740877022F
:100FE600031CF62FF72FAF2F080083120313A0015F
:0A0FF600A10183010A128A118D2F58
:02400E00323F3F
:00000001FF
