:020000040000FA
:100000000A128A11FC2F00308A000408840A820731
:100010000034D8340034C8340034D0340034C03410
:020020000034AA
:100F28000730831603139F00850188018701831208
:100F38000313051508000F300A128A11C1270A1277
:100F48008A1138300A128A11C1270A128A1101300F
:100F58000A128A11C12708000A128A1194270A1254
:100F68008A110A128A119F270A128A1163300A12FB
:100F78008A11D4270A128A11C02FF500831203138D
:100F8800851205127508880085113C30F000003084
:100F9800F1000A128A11E727831203138515080046
:100FA800F50083120313851605127508880085114C
:100FB8003C30F0000030F1000A128A11E727831252
:100FC800031385150800F301F4017408803AF20050
:100FD8007108803A7202031DF32F70087302031818
:100FE80008000130F3070318F40A0030F407E92F6A
:080FF80083010A128A11B02FD7
:02400E00323F3F
:00000001FF
