:020000040000FA
:100000000A128A11FC2F00308A000408840A820731
:100010000034D8340034C8340034D0340034C03410
:020020000034AA
:100F34000F300A128A11AB270A128A1138300A12AA
:100F44008A11AB270A128A1101300A128A11AB27BF
:100F54000800F50083120313851205127508880032
:100F640085113C30F0000030F1000A128A11D127BB
:100F74008312031385150800F500831203138516E5
:100F840005127508880085113C30F0000030F1002E
:100F94000A128A11D1278312031385150800F3015D
:100FA400F4017408803AF2007108803A7202031D59
:100FB400DD2F70087302031808000130F3070318CB
:100FC400F40A0030F407D32F0730831603139F006D
:100FD4008501880187018312031305150A128A11FA
:100FE4009A270A128A1162300A128A11BE270A123B
:0C0FF4008A11FB2F83010A128A11E62FDC
:02400E00323F3F
:00000001FF
