:020000040000FA
:100000000A128A11ED2F00308A000408840A820740
:1000100000340034373413340834033406341934CC
:100020000034D8340034C8340034D0340034C03400
:1000300000348E348C348A34883486348434823468
:0200400080340A
:100C0C00303401300A128A113C260A128A1108006B
:100C1C000730831603139F00850188018701831217
:100C2C00031305150800831603138501880106308C
:100C3C009F00023086008101FF3083120313850070
:100C4C00FF30880008000F300A128A113C260A1265
:100C5C008A1138300A128A113C260A128A11013084
:100C6C000A128A113C260A128A110800F500831216
:100C7C000313851205127508880085113C30F000AD
:100C8C000030F1000A128A117B260A128A11831293
:100C9C00031385150800831203130610861286169B
:100CAC008E300A128A11D5260A128A1100300A12C5
:100CBC008A11D5260A128A11831203138612080090
:100CCC00F50083120313851605127508880085112B
:100CDC001E30F0000030F1000A128A117B260A1235
:100CEC008A118312031385150800F301F401842E75
:100CFC000130F3070318F40A0030F4077408803A43
:100D0C00F2007108803A7202031D8E2E7008730275
:100D1C00031C912E922E7E2E0800F90083120313D1
:100D2C0086167908013E0A128A11D5260A128A11F2
:100D3C000A128A112F270A128A11F8007808FA0071
:100D4C008312031386127A080A128A11B0260A1229
:100D5C008A110800F7007708F00004300310F00C3B
:100D6C00FF3E031DB42E70080F39303EF1000030E9
:100D7C0003180130F20077080F39303EF3000030D1
:100D8C0003180130F400F501F6017108F000700849
:100D9C00F5007308F0007008F60075300800F400D8
:100DAC00F201F3018312031306120610741CDF2EDA
:100DBC00E02EE12E06167408F0000310700CF10002
:100DCC007108F40006140130F2070318F30A00301E
:100DDC00F3077308803AFF0080307F02031DF82E62
:100DEC0008307202031CFB2EFC2ED82E8312031328
:100DFC0006100800831203138616BE300A128A11DD
:100E0C00D5260A128A11F501F6017508013E8400F7
:100E1C000A128A1103200A128A110A128A11D52683
:100E2C000A128A110130F5070318F60A0030F6078A
:100E3C007608803AFF0080307F02031D272F083090
:100E4C007502031C2A2F2B2F0B2F831203138612D0
:100E5C000800831603130616F201F3018312031321
:100E6C0006107C08F0000310700CF1007108FC00F7
:100E7C00061E412F422F432FFC1706140130F20798
:100E8C000318F30A0030F3077308803AFF00803030
:100E9C007F02031D532F08307202031C562F572F4D
:100EAC00342F8316031306128312031306107C08C7
:100EBC0008000A128A110E260A128A110A128A11C5
:100ECC0029260A128A110A128A1119260A128A1163
:100EDC000A128A1151260A128A110A128A11002743
:100EEC000A128A110A128A1107260A128A118430F0
:100EFC000A128A1193260A128A11840000080A1217
:100F0C008A1166260A128A1184300A128A119326D3
:100F1C000A128A11FB0001307B07840000080A12B8
:100F2C008A1166260A128A113A300A128A1166262A
:100F3C000A128A1182300A128A1193260A128A1115
:100F4C00840000080A128A1166260A128A1182305D
:100F5C000A128A1193260A128A11FB0001307B07B0
:100F6C00840000080A128A1166260A128A113A3085
:100F7C000A128A1166260A128A1180300A128A1104
:100F8C0093260A128A11840000080A128A11662616
:100F9C000A128A1180300A128A1193260A128A11B7
:100FAC00FB0001307B07840000080A128A116626B8
:100FBC000A128A11DC30F0000530F1000A128A1195
:100FCC007B260A128A11782F0A128A1100280A121B
:100FDC008A1106260A128A11FC00A001A101A201A5
:100FEC00A301A401A501A601A701A80183010A126E
:040FFC008A115F2FC8
:02400E00323F3F
:00000001FF
