:020000040000FA
:100000000A128A11ED2F00308A000408840A820740
:1000100000340034373413340834033406341934CC
:100020000034D8340034C8340034D0340034C03400
:1000300000348E348C348A34883486348434823468
:0200400080340A
:100B4E00303401300A128A11E5250A128A11080082
:100B5E0064008001840A0406031900340406B02DD3
:100B6E000730831603139F008501880187018312C6
:100B7E00031305150800831603138501880106303B
:100B8E009F00023086008101FF308312031385001F
:100B9E00FF30880008000F300A128A11E5250A126C
:100BAE008A1138300A128A11E5250A128A1101308B
:100BBE000A128A11E5250A128A110800F50083121D
:100BCE000313851205127508880085113C30F0005C
:100BDE000030F1000A128A1124260A128A11831299
:100BEE00031385150800831203130610861286164A
:100BFE008E300A128A1198260A128A1100300A12B1
:100C0E008A1198260A128A1183120313861208007B
:100C1E00F5008312031385160512750888008511D9
:100C2E001E30F0000030F1000A128A1124260A123A
:100C3E008A118312031385150800F301F4012D2E7A
:100C4E000130F3070318F40A0030F4077408803AF1
:100C5E00F2007108803A7202031D372E700873027B
:100C6E00031C3A2E3B2E272E0800F300F401F5014B
:100C7E00462E0130F4070318F50A0030F507740804
:100C8E007307F2007208840083130008031D502EB0
:100C9E00512E402E7508F1007408F0000800F9007E
:100CAE008312031386167908013E0A128A119826BA
:100CBE000A128A110A128A111D270A128A11F800C5
:100CCE007808FA008312031386127A080A128A1120
:100CDE0073260A128A110800F7007708F000043014
:100CEE000310F00CFF3E031D772E70080F39303EB7
:100CFE00F100003003180130F20077080F39303E52
:100D0E00F300003003180130F400F501F60171080C
:100D1E00F0007008F5007308F0007008F6007530EA
:100D2E000800F400F201F3018312031306120610F9
:100D3E00741CA22EA32EA42E06167408F000031007
:100D4E00700CF1007108F40006140130F20703185C
:100D5E00F30A0030F3077308803AFF0080307F02F9
:100D6E00031DBB2E08307202031CBE2EBF2E9B2EFF
:100D7E008312031306100800F900F701F801D92EAB
:100D8E0077087907F60076088400831300080A12A4
:100D9E008A110F260A128A110130F7070318F80A72
:100DAE000030F80779080A128A113C260A128A11B5
:100DBE007808803AF6007108803A7602031DE92E13
:100DCE0070087702031CEC2EED2EC72E080083123E
:100DDE0003138616BE300A128A1198260A128A1139
:100DEE00F501F6017508013E84000A128A110320EE
:100DFE000A128A110A128A1198260A128A110130D1
:100E0E00F5070318F60A0030F6077608803AFF0059
:100E1E0080307F02031D152F08307502031C182F1A
:100E2E00192FF92E8312031386120800831603134B
:100E3E000616F201F3018312031306107D08F0006B
:100E4E000310700CF1007108FD00061E2F2F302FBD
:100E5E00312FFD1706140130F2070318F30A003084
:100E6E00F3077308803AFF0080307F02031D412F85
:100E7E0008307202031C442F452F222F83160313B2
:100E8E0006128312031306107D0808000A128A1137
:100E9E00B7250A128A110A128A11D2250A128A114C
:100EAE000A128A11C2250A128A110A128A11FA2509
:100EBE000A128A110A128A11EE260A128A110A12CF
:100ECE008A11A8250A128A110A128A1182270A1279
:100EDE008A110A128A11C3260A128A11DC30F00016
:100EEE000530F1000A128A1124260A128A11662F81
:100EFE000A128A110028323084000930FF00831351
:100F0E008001840AFF0B862F84300A128A1156261E
:100F1E000A128A1184000008FB007B088312031357
:100F2E00B20084300A128A1156260A128A11FB0068
:100F3E0001307B0784000008FC007C088312031339
:100F4E00B3003A30FB007B08B40082300A128A11DB
:100F5E0056260A128A1184000008FB007B088312B1
:100F6E000313B50082300A128A1156260A128A110C
:100F7E00FB0001307B0784000008FC007C08831214
:100F8E000313B6003A30FB007B08B70080300A121C
:100F9E008A1156260A128A1184000008FB007B086B
:100FAE0083120313B80080300A128A1156260A12D1
:100FBE008A11FB0001307B0784000008FC007C08CE
:100FCE0083120313B900BA01323008000A128A11D3
:100FDE00A7250A128A11FD008313203084003230B7
:100FEE000A128A11AF250A128A1183010A128A1176
:020FFE004D2F75
:02400E00323F3F
:00000001FF
