:020000040000FA
:100000000A128A11FC2F00308A000408840A820731
:100010000034C03400348034003457346F347234C8
:100020006C3464340034483465346C346C346F346C
:0200300000349A
:100E04000730831603139F008501880108000E3004
:100E14000A128A111A270A128A1101300A128A1137
:100E24001A270A128A1138300A128A111A2708005E
:100E3400F5008312031385100511750888008511C8
:100E44007030F0001730F1000A128A114027831223
:100E5400031385150800F500831203138514051187
:100E64007508880085117030F0001730F1000A12FF
:100E74008A1140278312031385150800F301F40136
:100E84007408803AF2007108803A7202031D4C2FF4
:100E940070087302031808000130F3070318F40AFA
:100EA4000030F407422FF300F401F50174087307CE
:100EB40084000A128A1103200A128A11003A0319C3
:100EC4006A2F0130F4070318F50A0030F507582F8C
:100ED4007508F1007408F000080076037704031D18
:100EE400802F7808803EFA0079080318013E003EFE
:100EF400FB007A080A128A111A27080002307606C3
:100F04007704031D08007808C03EFA007908031826
:100F1400013E003EFB007A080A128A111A270800D3
:100F2400F900F701F80179080A128A1155270A1203
:100F34008A117808803AF6007108803A7602031D17
:100F4400A52F700877020318080077087907840032
:100F54000A128A1103200A128A110A128A112D27F1
:100F64000A128A110130F7070318F80A0030F8074B
:100F7400952F0A128A1102270A128A110A128A115B
:100F840009270A128A110530FC007C088312031316
:100F9400A0000230F6000030F7000330F800003003
:100FA400F9000A128A116F270A128A118312031395
:100FB40020080A128A1192270A128A110B30FC00A7
:100FC4007C0883120313A1000130F6000030F700FF
:100FD4000130F8000030F9000A128A116F270A1252
:100FE4008A118312031321080A128A1192270A1202
:0C0FF4008A11BB2F83010A128A11BB2F47
:02400E00323F3F
:00000001FF
